{
  "_format": "hh-sol-artifact-1",
  "contractName": "PrizeEscrow",
  "sourceName": "contracts/PrizeEscrow.sol",
  "abi": [
    {
      "inputs": [
        {
          "internalType": "address",
          "name": "_judge",
          "type": "address"
        }
      ],
      "stateMutability": "nonpayable",
      "type": "constructor"
    },
    {
      "inputs": [
        {
          "internalType": "address",
          "name": "_winner",
          "type": "address"
        }
      ],
      "name": "approveWinner",
      "outputs": [],
      "stateMutability": "nonpayable",
      "type": "function"
    },
    {
      "inputs": [],
      "name": "currentState",
      "outputs": [
        {
          "internalType": "enum PrizeEscrow.State",
          "name": "",
          "type": "uint8"
        }
      ],
      "stateMutability": "view",
      "type": "function"
    },
    {
      "inputs": [],
      "name": "depositPrize",
      "outputs": [],
      "stateMutability": "payable",
      "type": "function"
    },
    {
      "inputs": [],
      "name": "judge",
      "outputs": [
        {
          "internalType": "address",
          "name": "",
          "type": "address"
        }
      ],
      "stateMutability": "view",
      "type": "function"
    },
    {
      "inputs": [],
      "name": "organizer",
      "outputs": [
        {
          "internalType": "address",
          "name": "",
          "type": "address"
        }
      ],
      "stateMutability": "view",
      "type": "function"
    },
    {
      "inputs": [],
      "name": "payoutPrize",
      "outputs": [],
      "stateMutability": "nonpayable",
      "type": "function"
    },
    {
      "inputs": [],
      "name": "prizeAmount",
      "outputs": [
        {
          "internalType": "uint256",
          "name": "",
          "type": "uint256"
        }
      ],
      "stateMutability": "view",
      "type": "function"
    },
    {
      "inputs": [],
      "name": "prizeDeposited",
      "outputs": [
        {
          "internalType": "bool",
          "name": "",
          "type": "bool"
        }
      ],
      "stateMutability": "view",
      "type": "function"
    },
    {
      "inputs": [],
      "name": "prizePaid",
      "outputs": [
        {
          "internalType": "bool",
          "name": "",
          "type": "bool"
        }
      ],
      "stateMutability": "view",
      "type": "function"
    },
    {
      "inputs": [],
      "name": "winner",
      "outputs": [
        {
          "internalType": "address",
          "name": "",
          "type": "address"
        }
      ],
      "stateMutability": "view",
      "type": "function"
    }
  ],
  "bytecode": "0x608060405234801561001057600080fd5b50604051610d7d380380610d7d83398181016040528101906100329190610147565b336000806101000a81548173ffffffffffffffffffffffffffffffffffffffff021916908373ffffffffffffffffffffffffffffffffffffffff16021790555080600260006101000a81548173ffffffffffffffffffffffffffffffffffffffff021916908373ffffffffffffffffffffffffffffffffffffffff1602179055506000600460026101000a81548160ff021916908360038111156100d9576100d8610174565b5b0217905550506101a3565b600080fd5b600073ffffffffffffffffffffffffffffffffffffffff82169050919050565b6000610114826100e9565b9050919050565b61012481610109565b811461012f57600080fd5b50565b6000815190506101418161011b565b92915050565b60006020828403121561015d5761015c6100e4565b5b600061016b84828501610132565b91505092915050565b7f4e487b7100000000000000000000000000000000000000000000000000000000600052602160045260246000fd5b610bcb806101b26000396000f3fe6080604052600436106100915760003560e01c8063573255f411610059578063573255f4146101385780636120326514610163578063785fa6271461018e57806398ceeccf146101b9578063dfbf53ae146101e257610091565b80630c3f6acf1461009657806313d25eda146100c15780632f372916146100d8578063444897ff146101035780634e0832781461012e575b600080fd5b3480156100a257600080fd5b506100ab61020d565b6040516100b89190610849565b60405180910390f35b3480156100cd57600080fd5b506100d6610220565b005b3480156100e457600080fd5b506100ed61046a565b6040516100fa919061087f565b60405180910390f35b34801561010f57600080fd5b5061011861047d565b604051610125919061087f565b60405180910390f35b610136610490565b005b34801561014457600080fd5b5061014d6105e5565b60405161015a91906108db565b60405180910390f35b34801561016f57600080fd5b5061017861060b565b60405161018591906108db565b60405180910390f35b34801561019a57600080fd5b506101a361062f565b6040516101b0919061090f565b60405180910390f35b3480156101c557600080fd5b506101e060048036038101906101db919061095b565b610635565b005b3480156101ee57600080fd5b506101f76107ac565b60405161020491906108db565b60405180910390f35b600460029054906101000a900460ff1681565b60008054906101000a900473ffffffffffffffffffffffffffffffffffffffff1673ffffffffffffffffffffffffffffffffffffffff163373ffffffffffffffffffffffffffffffffffffffff16146102ae576040517f08c379a00000000000000000000000000000000000000000000000000000000081526004016102a590610a0b565b60405180910390fd5b60028060038111156102c3576102c26107d2565b5b600460029054906101000a900460ff1660038111156102e5576102e46107d2565b5b14610325576040517f08c379a000000000000000000000000000000000000000000000000000000000815260040161031c90610a77565b60405180910390fd5b600073ffffffffffffffffffffffffffffffffffffffff16600160009054906101000a900473ffffffffffffffffffffffffffffffffffffffff1673ffffffffffffffffffffffffffffffffffffffff16036103b6576040517f08c379a00000000000000000000000000000000000000000000000000000000081526004016103ad90610ae3565b60405180910390fd5b600160009054906101000a900473ffffffffffffffffffffffffffffffffffffffff1673ffffffffffffffffffffffffffffffffffffffff166108fc6003549081150290604051600060405180830381858888f19350505050158015610420573d6000803e3d6000fd5b506001600460016101000a81548160ff0219169083151502179055506003600460026101000a81548160ff02191690836003811115610462576104616107d2565b5b021790555050565b600460009054906101000a900460ff1681565b600460019054906101000a900460ff1681565b60008054906101000a900473ffffffffffffffffffffffffffffffffffffffff1673ffffffffffffffffffffffffffffffffffffffff163373ffffffffffffffffffffffffffffffffffffffff161461051e576040517f08c379a000000000000000000000000000000000000000000000000000000000815260040161051590610a0b565b60405180910390fd5b6000806003811115610533576105326107d2565b5b600460029054906101000a900460ff166003811115610555576105546107d2565b5b14610595576040517f08c379a000000000000000000000000000000000000000000000000000000000815260040161058c90610a77565b60405180910390fd5b346003819055506001600460006101000a81548160ff0219169083151502179055506001600460026101000a81548160ff021916908360038111156105dd576105dc6107d2565b5b021790555050565b600260009054906101000a900473ffffffffffffffffffffffffffffffffffffffff1681565b60008054906101000a900473ffffffffffffffffffffffffffffffffffffffff1681565b60035481565b600260009054906101000a900473ffffffffffffffffffffffffffffffffffffffff1673ffffffffffffffffffffffffffffffffffffffff163373ffffffffffffffffffffffffffffffffffffffff16146106c5576040517f08c379a00000000000000000000000000000000000000000000000000000000081526004016106bc90610b75565b60405180910390fd5b60018060038111156106da576106d96107d2565b5b600460029054906101000a900460ff1660038111156106fc576106fb6107d2565b5b1461073c576040517f08c379a000000000000000000000000000000000000000000000000000000000815260040161073390610a77565b60405180910390fd5b81600160006101000a81548173ffffffffffffffffffffffffffffffffffffffff021916908373ffffffffffffffffffffffffffffffffffffffff1602179055506002600460026101000a81548160ff021916908360038111156107a3576107a26107d2565b5b02179055505050565b600160009054906101000a900473ffffffffffffffffffffffffffffffffffffffff1681565b7f4e487b7100000000000000000000000000000000000000000000000000000000600052602160045260246000fd5b60048110610812576108116107d2565b5b50565b600081905061082382610801565b919050565b600061083382610815565b9050919050565b61084381610828565b82525050565b600060208201905061085e600083018461083a565b92915050565b60008115159050919050565b61087981610864565b82525050565b60006020820190506108946000830184610870565b92915050565b600073ffffffffffffffffffffffffffffffffffffffff82169050919050565b60006108c58261089a565b9050919050565b6108d5816108ba565b82525050565b60006020820190506108f060008301846108cc565b92915050565b6000819050919050565b610909816108f6565b82525050565b60006020820190506109246000830184610900565b92915050565b600080fd5b610938816108ba565b811461094357600080fd5b50565b6000813590506109558161092f565b92915050565b6000602082840312156109715761097061092a565b5b600061097f84828501610946565b91505092915050565b600082825260208201905092915050565b7f4f6e6c79206f7267616e697a65722063616e2063616c6c20746869732066756e60008201527f6374696f6e000000000000000000000000000000000000000000000000000000602082015250565b60006109f5602583610988565b9150610a0082610999565b604082019050919050565b60006020820190508181036000830152610a24816109e8565b9050919050565b7f496e76616c696420737461746500000000000000000000000000000000000000600082015250565b6000610a61600d83610988565b9150610a6c82610a2b565b602082019050919050565b60006020820190508181036000830152610a9081610a54565b9050919050565b7f57696e6e657220686173206e6f74206265656e20617070726f76656400000000600082015250565b6000610acd601c83610988565b9150610ad882610a97565b602082019050919050565b60006020820190508181036000830152610afc81610ac0565b9050919050565b7f4f6e6c79206a756467652063616e2063616c6c20746869732066756e6374696f60008201527f6e00000000000000000000000000000000000000000000000000000000000000602082015250565b6000610b5f602183610988565b9150610b6a82610b03565b604082019050919050565b60006020820190508181036000830152610b8e81610b52565b905091905056fea26469706673582212203cd4e4434130c9fb6040f527fff1afa238d2686c7ac995d0a4c4e8bfe2d23c2f64736f6c63430008180033",
  "linkReferences": {},
  "deployedLinkReferences": {}
}